:020000040000fa
:080000000002040000000000f2
:020000040000fa
:04000800e20500000d
:020000040000fa
:04000c00600500008b
:020000040000fa
:04001000a205000045
:020000040000fa
:040014008005000063
:020000040000fa
:04001800c20500001d
:020000040000fa
:04001c00e2050000f9
:020000040000fa
:04002000e2050000f5
:020000040000fa
:04002400e2050000f1
:020000040000fa
:04002800e2050000ed
:020000040000fa
:04002c00e2050000e9
:020000040000fa
:04003000e2050000e5
:020000040000fa
:04003400e2050000e1
:020000040000fa
:04003800e2050000dd
:020000040000fa
:04003c00e2050000d9
:020000040000fa
:04004000e2050000d5
:020000040000fa
:04004400e2050000d1
:020000040000fa
:04004800e2050000cd
:020000040000fa
:04004c00e2050000c9
:020000040000fa
:04005000e2050000c5
:020000040000fa
:04005400e2050000c1
:020000040000fa
:04005800e2050000bd
:020000040000fa
:04005c00e2050000b9
:020000040000fa
:04006000e2050000b5
:020000040000fa
:04006400e2050000b1
:020000040000fa
:04006800e2050000ad
:020000040000fa
:04006c00100300007d
:020000040000fa
:04007000e2050000a5
:020000040000fa
:04007400e2050000a1
:020000040000fa
:04007800e20500009d
:020000040000fa
:04007c00e205000099
:020000040000fa
:04008000e205000095
:020000040000fa
:04008400e205000091
:020000040000fa
:04008800e20500008d
:020000040000fa
:04008c00e205000089
:020000040000fa
:04009000e205000085
:020000040000fa
:04009400e205000081
:020000040000fa
:04009800e20500007d
:020000040000fa
:04009c00e205000079
:020000040000fa
:0400a000e205000075
:020000040000fa
:0400a400e205000071
:020000040000fa
:0400a800e20500006d
:020000040000fa
:0400ac00e205000069
:020000040000fa
:0400b000e205000065
:020000040000fa
:0400b400e205000061
:020000040000fa
:0400b800e20500005d
:020000040000fa
:0400bc00e205000059
:020000040000fa
:0400c000e205000055
:020000040000fa
:0400c400e205000051
:020000040000fa
:0400c800e20500004d
:020000040000fa
:0400cc00e205000049
:020000040000fa
:0400d000e205000045
:020000040000fa
:0400d400e205000041
:020000040000fa
:0400d800e20500003d
:020000040000fa
:0400dc00e205000039
:020000040000fa
:0400e000e205000035
:020000040000fa
:0400e400e205000031
:020000040000fa
:0400e800e20500002d
:020000040000fa
:0400ec00e205000029
:020000040000fa
:0400f000e205000025
:020000040000fa
:0400f400e205000021
:020000040000fa
:0400f800e20500001d
:020000040000fa
:0400fc00e205000019
:020000040000fa
:04010000e205000014
:020000040000fa
:04010400e205000010
:020000040000fa
:04010800e20500000c
:020000040000fa
:04010c00e205000008
:020000040000fa
:04011000e205000004
:020000040000fa
:04011400e205000000
:020000040000fa
:04011800e2050000fc
:020000040000fa
:04011c00e2050000f8
:020000040000fa
:04012000e2050000f4
:020000040000fa
:04012400e2050000f0
:020000040000fa
:04012800e2050000ec
:020000040000fa
:04012c00e2050000e8
:020000040000fa
:04013000e2050000e4
:020000040000fa
:04013400e2050000e0
:020000040000fa
:04013800e2050000dc
:020000040000fa
:04013c00e2050000d8
:020000040000fa
:04014000e2050000d4
:020000040000fa
:04014400e2050000d0
:020000040000fa
:04014800e2050000cc
:020000040000fa
:04014c00e2050000c8
:020000040000fa
:04015000e2050000c4
:020000040000fa
:04015400e2050000c0
:020000040000fa
:04015800e2050000bc
:020000040000fa
:04015c00e2050000b8
:020000040000fa
:04016000e2050000b4
:020000040000fa
:04016400e2050000b0
:020000040000fa
:04016800e2050000ac
:020000040000fa
:04016c00e2050000a8
:020000040000fa
:04017000e2050000a4
:020000040000fa
:04017400e2050000a0
:020000040000fa
:04017800e20500009c
:020000040000fa
:04017c00e205000098
:020000040000fa
:04018000e205000094
:020000040000fa
:04018400e205000090
:020000040000fa
:04018800e20500008c
:020000040000fa
:04018c00e205000088
:020000040000fa
:04019000e205000084
:020000040000fa
:04019400e205000080
:020000040000fa
:04019800e20500007c
:020000040000fa
:04019c00e205000078
:020000040000fa
:0401a000e205000074
:020000040000fa
:0401a400e205000070
:020000040000fa
:0401a800e20500006c
:020000040000fa
:0401ac00e205000068
:020000040000fa
:0401b000e205000064
:020000040000fa
:0401b400e205000060
:020000040000fa
:0401b800e20500005c
:020000040000fa
:0401bc00e205000058
:020000040000fa
:0401c000e205000054
:020000040000fa
:0401c400e205000050
:020000040000fa
:0401c800e20500004c
:020000040000fa
:0401cc00e205000048
:020000040000fa
:0401d000e205000044
:020000040000fa
:0401d400e205000040
:020000040000fa
:0401d800e20500003c
:020000040000fa
:0401dc00e205000038
:020000040000fa
:0401e000e205000034
:020000040000fa
:0401e400e205000030
:020000040000fa
:0401e800e20500002c
:020000040000fa
:0401ec00e205000028
:020000040000fa
:0401f000e205000024
:020000040000fa
:0401f400e205000020
:020000040000fa
:0401f800e20500001c
:020000040000fa
:0401fc00e205000018
:020000040000fa
:04020800e20500000b
:020000040000fa
:04020c006005000089
:020000040000fa
:04021000a205000043
:020000040000fa
:040214008005000061
:020000040000fa
:04021800c20500001b
:020000040000fa
:04021c00e2050000f7
:020000040000fa
:04022000e2050000f3
:020000040000fa
:04022400e2050000ef
:020000040000fa
:04022800e2050000eb
:020000040000fa
:04022c00e2050000e7
:020000040000fa
:04023000e2050000e3
:020000040000fa
:04023400e2050000df
:020000040000fa
:04023800e2050000db
:020000040000fa
:04023c00e2050000d7
:020000040000fa
:04024000e2050000d3
:020000040000fa
:04024400e2050000cf
:020000040000fa
:04024800e2050000cb
:020000040000fa
:04024c00e2050000c7
:020000040000fa
:04025000e2050000c3
:020000040000fa
:04025400e2050000bf
:020000040000fa
:04025800e2050000bb
:020000040000fa
:04025c00e2050000b7
:020000040000fa
:04026000e2050000b3
:020000040000fa
:04026400e2050000af
:020000040000fa
:04026800e2050000ab
:020000040000fa
:04026c00100300007b
:020000040000fa
:04027000e2050000a3
:020000040000fa
:04027400e20500009f
:020000040000fa
:04027800e20500009b
:020000040000fa
:04027c00e205000097
:020000040000fa
:04028000e205000093
:020000040000fa
:04028400e20500008f
:020000040000fa
:04028800e20500008b
:020000040000fa
:04028c00e205000087
:020000040000fa
:04029000e205000083
:020000040000fa
:04029400e20500007f
:020000040000fa
:04029800e20500007b
:020000040000fa
:04029c00e205000077
:020000040000fa
:0402a000e205000073
:020000040000fa
:0402a400e20500006f
:020000040000fa
:0402a800e20500006b
:020000040000fa
:0402ac00e205000067
:020000040000fa
:0402b000e205000063
:020000040000fa
:0402b400e20500005f
:020000040000fa
:0402b800e20500005b
:020000040000fa
:0402bc00e205000057
:020000040000fa
:0402c000e205000053
:020000040000fa
:0402c400e20500004f
:020000040000fa
:0402c800e20500004b
:020000040000fa
:0402cc00e205000047
:020000040000fa
:0402d000e205000043
:020000040000fa
:0402d400e20500003f
:020000040000fa
:0402d800e20500003b
:020000040000fa
:0402dc00e205000037
:020000040000fa
:0402e000e205000033
:020000040000fa
:0402e400e20500002f
:020000040000fa
:0402e800e20500002b
:020000040000fa
:0402ec00e205000027
:020000040000fa
:0402f000e205000023
:020000040000fa
:0402f400e20500001f
:020000040000fa
:0402f800e20500001b
:020000040000fa
:0402fc00e205000017
:020000040000fa
:04030000e205000012
:020000040000fa
:04030400e20500000e
:020000040000fa
:04030800e20500000a
:020000040000fa
:04030c00e205000006
:020000040000fa
:04031000e205000002
:020000040000fa
:04031400e2050000fe
:020000040000fa
:04031800e2050000fa
:020000040000fa
:04031c00e2050000f6
:020000040000fa
:04032000e2050000f2
:020000040000fa
:04032400e2050000ee
:020000040000fa
:04032800e2050000ea
:020000040000fa
:04032c00e2050000e6
:020000040000fa
:04033000e2050000e2
:020000040000fa
:04033400e2050000de
:020000040000fa
:04033800e2050000da
:020000040000fa
:04033c00e2050000d6
:020000040000fa
:04034000e2050000d2
:020000040000fa
:04034400e2050000ce
:020000040000fa
:04034800e2050000ca
:020000040000fa
:04034c00e2050000c6
:020000040000fa
:04035000e2050000c2
:020000040000fa
:04035400e2050000be
:020000040000fa
:04035800e2050000ba
:020000040000fa
:04035c00e2050000b6
:020000040000fa
:04036000e2050000b2
:020000040000fa
:04036400e2050000ae
:020000040000fa
:04036800e2050000aa
:020000040000fa
:04036c00e2050000a6
:020000040000fa
:04037000e2050000a2
:020000040000fa
:04037400e20500009e
:020000040000fa
:04037800e20500009a
:020000040000fa
:04037c00e205000096
:020000040000fa
:04038000e205000092
:020000040000fa
:04038400e20500008e
:020000040000fa
:04038800e20500008a
:020000040000fa
:04038c00e205000086
:020000040000fa
:04039000e205000082
:020000040000fa
:04039400e20500007e
:020000040000fa
:04039800e20500007a
:020000040000fa
:04039c00e205000076
:020000040000fa
:0403a000e205000072
:020000040000fa
:0403a400e20500006e
:020000040000fa
:0403a800e20500006a
:020000040000fa
:0403ac00e205000066
:020000040000fa
:0403b000e205000062
:020000040000fa
:0403b400e20500005e
:020000040000fa
:0403b800e20500005a
:020000040000fa
:0403bc00e205000056
:020000040000fa
:0403c000e205000052
:020000040000fa
:0403c400e20500004e
:020000040000fa
:0403c800e20500004a
:020000040000fa
:0403cc00e205000046
:020000040000fa
:0403d000e205000042
:020000040000fa
:0403d400e20500003e
:020000040000fa
:0403d800e20500003a
:020000040000fa
:0403dc00e205000036
:020000040000fa
:0403e000e205000032
:020000040000fa
:0403e400e20500002e
:020000040000fa
:0403e800e20500002a
:020000040000fa
:0403ec00e205000026
:020000040000fa
:0403f000e205000022
:020000040000fa
:0403f400e20500001e
:020000040000fa
:0403f800e20500001a
:020000040000fa
:0403fc00e205000016
:020000040000fa
:100400008f9620000e7f22000e0188000000000061
:10041000000020000000e000020032000001200087
:1004200020028800140007002f0207000000e000ef
:1004300003003a0080d721000100200002003700ad
:100440000000200001002000810f70000100320038
:1004500014000700000020000000e000020032004d
:100460000000020000000000082002000000000060
:100470000040da000000fe004440a90040032000d4
:100480000000e000030032000020200090018800fe
:100490004440a800000006008a1f78008b1f7800e7
:1004a00000000600a1028800800478000000eb0034
:1004b0001f003700e284440054a0b4009905ba003c
:1004c000e284440054a0b4009906ba00e2844400d7
:1004d00054a0b4000006eb00476fde00fd07b20039
:1004e000ae018800636ce10003003a00eaff0700f8
:1004f0000000eb000e003700606ce10008003a00dd
:10050000004deb000a05e800020039003420ec0041
:100510000af0a0008b05e900f9ff3e000400370057
:100520006168e100010032000086eb000b0007006b
:1005300019c7ba001905ba000e04e00003003a001a
:100540000a00e000dbff3a0000000600fe07b200f0
:10055000ae0288008a047800f5ff37000cd0a300b3
:10056000e20f4d001c00390089027800354dba00b9
:100570000a05e800020039003420ec000af0a0006f
:100580008b05e9000f003200254dba000a05e8008e
:10059000020039003420ec000af0a0008b05e900cd
:1005a000080032000c00e0000600320015cdba0051
:1005b0000a05e800020039003420ec000af0a0002f
:1005c0008b05e9008984e80054a0b4000b00e0002a
:1005d000e2ff3a00000006009902ba00055d7800cb
:1005e0008b05e900f7ff3200c82ade00055d7800c0
:1005f0008b05e900f3ff32000c00e000f1ff320050
:1006000019ddba00eeff37004607040000000000c5
:100610007009040000000000000004000000000059
:100620003600f800809fbe00829fbe00849fbe00ff
:10063000869fbe000000fa008620a90021178000d6
:1006400000082000008060000000e0000800320088
:10065000e4e2a9000828ef0070408000200090002c
:100660008000eb00010878000e28ef000d01370034
:10067000404080008000eb00b2002000030020001a
:10068000820f5000838f5800fc003e000060010084
:100690000b00370039003700750037009c00370029
:1006a000f3003700c8003700d9003700f0003700ea
:1006b000db003700f100370034003700500037000e
:1006c0000080200020009000620060000000e00038
:1006d000f3003a0000802000100090007040880075
:1006e0000080200010009000104078000ae8b70059
:1006f00000802000100090001000900060408800f2
:100700000080200010009000e600400000802000e3
:10071000110098000080200090009000a09420001c
:10072000808f500003003a00008020004194200098
:100730001100980000802000a00090000100a1009e
:100740002100980000802000900090000080200090
:1007500010007800808f500004003a0000802000d4
:10076000a00090000110a00021009800e002a80065
:100770002000200040408800ca003700e022a80086
:100780002000200040408800c6003700211780006c
:1007900000002800008060000000e0000800320037
:1007a00000802000604090008040e8000080200031
:1007b00061409800400020006d0b0700b900370031
:1007c000804080008000d100f00f20000080600099
:1007d000e0168800804080006100600000407800e2
:1007e0000004e00003003200b00020004040880018
:1007f000ac0037003000200040408800a9003700de
:100800002117800000002800008060000000e00048
:100810000800320000802000604090008040e80026
:10082000008020006140980040002000500b07002d
:100830009c003700e022a800804080004800de00d5
:10084000e6006000000f200001007000804088007a
:10085000804080000000a0008040880010c0b300ed
:1008600012e8b70020002000404088008d003700cb
:1008700012c8bf00e14f50000a0032006040800003
:1008800010007800804088006040800020009000c8
:10089000a0408800604080002040900016e8b7002b
:1008a000010037001268ef0081408000f00f200047
:1008b000808f500009003600804080004800de0034
:1008c000e6006000000f200001007000e0168800c4
:1008d000a000200040408800720037008040800067
:1008e000e0168800804080006100600000407800d1
:1008f0000004e00003003200500020004040880067
:100900006800370030002000404088006500370054
:100910002117800000002800008060000000e00037
:100920000900320000802000604090008040e80014
:100930000080200061409800e5e2a90050002000fe
:100940000b0b07005700370016c8bf008080fb0064
:100950008100e900cf08de00814078000040e90016
:1009600016e8b7000104e00010003200604080008b
:1009700066004000604088000ac8bf000040e900ef
:100980000ae8b7000ac8bf000004e00003003a000c
:1009900020002000f60a070042003700e022a800ed
:1009a00020002000404088003e003700a04080002a
:1009b000904078008180fb00e11688000000e8008c
:1009c000a040880037003700211780000000280071
:1009d000008060000000e00009003200008020007c
:1009e000604090008040e800008020006140980056
:1009f00040002000de0a0700e5e2a90029003700d8
:100a0000e062a800800020004040880025003700f8
:100a10008000200040408800e062a80021003700ec
:100a2000a0408000d1168000814078000148780005
:100a30000000e800a040880016c8bf000040e900a0
:100a400016e8b70016c8bf000004e000040032003a
:100a5000e0a2a900600020004040880002003700aa
:100a6000e0a2a800b10a0700e082a8000d0037004c
:100a700020002000be0a07000a0037000080200086
:100a8000604090008040e8000080200061409800b5
:100a900060002000b60a07000000000001003700d7
:100aa000000000000080fa004f03be004f02be00ad
:100ab0004f01be004f00be003600f90000400600a6
:100ac0003600f800809fbe00829fbe00849fbe005b
:100ad000869fbe000000fa008020a9000000eb0005
:100ae000840d07000080fa004f03be004f02be00d5
:100af0004f01be004f00be003600f9000040060066
:100b00003600f800809fbe00829fbe00849fbe001a
:100b1000869fbe000000fa007b0d07008040a90000
:100b200010002000730d07000080fa004f03be0084
:100b30004f02be004f01be004f00be003600f9005c
:100b4000004006003600f800809fbe00829fbe0075
:100b5000849fbe00869fbe000000fa008060a9004e
:100b600020002000630d07000080fa004f03be0044
:100b70004f02be004f01be004f00be003600f9001c
:100b8000004006003600f800809fbe00829fbe0035
:100b9000849fbe00869fbe000000fa008080a900ee
:100ba00030002000530d07000080fa004f03be0004
:100bb0004f02be004f01be004f00be003600f900dc
:100bc000004006000040da000000fe000a00fa00c3
:100bd00011002000b1bf9f00c0bf9f006a80570076
:100be0003f0707004fb897000080fa00000006009a
:100bf0000a00fa0051002000b1bf9f00c0bf9f0053
:100c00006a805700380707005fb897000080fa0035
:100c100000000600889fbe0080047800304b8000f2
:100c20000000e00004003a000e0007000084eb0022
:100c30000000e00008003500384b80000900e000ab
:100c40000500320009004400060007000000e00033
:100c500001003d000084eb00080078004f04be0056
:100c600000000600800078000100e00003003a0068
:100c700000002000304b8800000005000080eb00e1
:100c800002002000828f500002003e00314b88009d
:100c90000000eb00000006000800fa0010079800b2
:100ca0002107980032079800be009000010f7800dd
:100cb000070037002e00900010407800ae00900032
:100cc0008100e800210798002e0c07001e0fe900a4
:100cd0001e0078000000e000f6ff3a003e009000a1
:100ce0000080fa0000000600000005004f89de00c9
:100cf0008201780000003700881f78000304780024
:100d00000300e00007003d0060001000e0801800d4
:100d100060011900e081190002003b0001f02d0084
:100d2000030037000400070008f0a70001f0a0004e
:100d30004f04780000000600889fbe008a9fbe0016
:100d400000827000040271000482710026003200eb
:100d50000004be000200be006011b8006b09200054
:100d6000950220000182cf000a0039000541b10040
:100d70000082cf00070039000541b1000982cf0091
:100d8000040039000541b1000882cf00010039009c
:100d90000541b10005425200120032000a003b003a
:100da00082817100610164008100d1000080d30064
:100db0008984d3000884d3008b05e8000442e8004e
:100dc000f7ff3a00070037000804440089844c000c
:100dd00000004800818048008b05e9000442e900da
:100de000f9ff3a00030007004f05be004f04be00a4
:100df0000000060081002000618055000b003d00ce
:100e00000b00200061fe2f000100e1001d003400f6
:100e100082817100610164008904d1000884d300db
:100e20000000e800faff3a00710020006100640051
:100e300003007000020060000900320061044400f9
:100e4000e0844c000988a500050032008b05e8000d
:100e50006808e10002003a008904d1000884d30048
:100e6000f20f20000258e10005003d00c75ddd00e3
:100e7000f907b200898075000800780000000600bc
:100e80000bf827008b00780000000500889fbe004b
:100e9000000478000100780082047800880178005e
:100ea00009017800110020000e000700890f500092
:100eb000010032000004eb00080078004f04be007f
:100ec000000006000000fa00e88157004fb99700c3
:100ed0002185200060742000580107000080fa007e
:100ee00000000600889fbe008a9fbe008c9fbe0047
:100ef0008e1f780000067800010478000200780058
:100f0000830478000881b900020778000200e0003d
:100f1000420032000800e000410032008205780003
:100f2000c900900069009000808f500004003900d3
:100f300009007800500007000000e000290035009b
:100f400000402000190060000a0032000b01780008
:100f5000a10020000c007800360007008006780011
:100f60000d00e00006003200610516000a8546000b
:100f7000040037000b0578008006eb000100370005
:100f80000b05780049009000e90090008080500037
:100f90008a8f500002003100010578008006eb00c6
:100fa0000a0178008c0078002c0007008a85550023
:100fb000490090000a004000c00498000d00e000c5
:100fc0000400320009007800d50007000000e000ae
:100fd00004003a000b00e000020032000a0646005e
:100fe000cfff3700008020001900600002003200af
:100ff00009007800ca00070000c020001900600046
:101000000200320049009000e00498008b05570070
:10101000110009008885d800010037000000eb00ae
:101020004f0778004f06be004f05be004f04be00bc
:101030000000060003003700b0cf100005003200aa
:101040000201e900800178000200e000faff3a00a6
:101050000000050003007800000006008001780011
:1010600002003700b15978000201e9000200e000f7
:10107000fcff3a0000000600889fbe008a1f78002f
:1010800000047800c8009000680190000000eb00a8
:10109000828f50003c00390018007800220029009f
:1010a00002016000e20f510007003200012024001d
:1010b0000000e00001003d0001202000008c7000d5
:1010c0000080eb00300037000200260002006000c4
:1010d000820f500009003a0038009000808f5000c5
:1010e00006003900080078008d00070080007800b5
:1010f0000080eb000100e00023003a0018057800b2
:1011000000c020000000650018003a00a80490000c
:101110006002200008004000808f540013003a0055
:10112000002020007a040700200498000000e0005e
:1011300005003a0029049800490498008904e80051
:1011400039049800080037000a60a0000a0c7800f3
:101150004004980001202000808040003104980065
:10116000400c9800500c98000c00070028009000dc
:101170005004980038009000600498000000260099
:10118000180c70000000eb004f0578004f04be0003
:1011900000000600009720009c003700881f7800a0
:1011a000089620001804e00003003a00f9ff070049
:1011b00020c0b300004c78004f0478000000060007
:1011c000889fbe00000478000800780054000700e3
:1011d0008004780000042000180060000200320043
:1011e00028009000d00307000000eb0020049800c6
:1011f000384090000004e000050035000000fb00ce
:1012000072fe07000000e000010032008084eb0065
:10121000181090000000e0000800320074fe070083
:101220000000e000010032008084eb001810900004
:10123000bd0307000000eb00101498000008200018
:1012400018006000150032000001eb006000b800db
:10125000238a20000202d00063027a00880f520025
:1012600005003a00000040008180480000804100f5
:101270000008eb000600370061004000e0804800f5
:101280000201e800e80f5000e08f5800f0ff3a003c
:1012900008007800a40307000e003700000c780057
:1012a00000c0eb00304498006002200008004000bd
:1012b000200498004004980050049800400c9800c6
:1012c00060049800500c9800700498007600440068
:1012d000000c9800090078004f04be0000000600d2
:1012e000881f78000004eb006140b800e2ff2f0087
:1012f000f3ff2f0022070700028b20006200780016
:101300000000e00001003200adff07000804e80023
:10131000e80f5400f4ff3a004f0478000000060084
:10132000889fbe00000478000800e0000f003a002b
:101330008004eb00090478008800d000208a200097
:10134000610078000000e00004003200f4ff0700b4
:101350000000e00001003d008084eb000804e8008c
:10136000e80f5400f4ff3a00250037000000220087
:10137000180060008004eb0021003200a8049000f7
:101380000f00370009015100384090000000fb00b9
:101390008900780040fe07000000e00007003c00e4
:1013a000280090004004980060049800500c9800b9
:1013b0001890a0008084eb00110037008084440066
:1013c00048019000828f5400eeff39002800900001
:1013d000400498009800780002c02000028160005c
:1013e00001003a003800900001e8a300020032003a
:1013f0006004980001003700500c98008004eb0056
:10140000090078004f04be00000006000100200023
:101410000100e00008003200010080000100e0004f
:10142000050032008100e900010088008100d00041
:101430000200800000b17800000006006200fa009f
:10144000889fbe008a1f780000057800810478001c
:10145000020478008300780080f92f000f0040001c
:10146000d10407009a979f00a9979f000000eb0006
:10147000b09f9f001885fb008a04fb000a05ea0064
:101480004f55de0050022000808f54000d003200c6
:10149000e10f55000b003a000a017800880078003f
:1014a0002f9097009f91970003000100a0979f0045
:1014b0000000e0008e0032003f9897000000e80036
:1014c000b09f9f000a04440050022000808f540007
:1014d000040032000900e000e6ff3a003f98970060
:1014e000840037000000eb00909f9f00809f9f00ca
:1014f000f0979f00e0979f00d0979f00c0979f00b4
:1015000007003700e1932000010050000000400078
:101510002193200061007800df989700010070009f
:10152000d09f9f008804780009047800384578002f
:101530008a00fb00e09320009f0307000000e0000a
:10154000f0ff3a00a1c2b300814f55000e003a00ef
:10155000cf8897000180e900c08f9f0010007800bd
:10156000c09f9f000000e00005003d000000ea0071
:10157000c09f9f005f9897000020a000d09f9f0011
:101580000904e8000f003700c09f9f000000eb0037
:1015900005003700f2ff2700820f500002003200e2
:1015a0006a01b900028040000904780088047800cc
:1015b000b900fb000103b100e98f5000f5ff3600d0
:1015c000c09f9f00e0c2b300984f1000020032009d
:1015d0000080eb0019003700a0c2b300d84f100004
:1015e00007003a00cf8897000180e900c08f9f0074
:1015f00010007800a09f9f000804e800100037004a
:101600000000eb00a09f9f008800780005003700d5
:10161000f3ff2700830f5000020032006a02b90076
:101620000400410001047800880078003101fb00cb
:101630000203b100e90f5100f5ff3600a09f9f00a3
:10164000984478008900fb00a09220005a0307000c
:101650000000e000020032000804e800010037004a
:101660008044eb00c97f9f0080c6b30080cf540048
:1016700004003a0098cf14000a003a006640500077
:1016800006003700c0c6b30080cf540005003a0002
:1016900098cf140003003a0065404000c07f9f00cf
:1016a0000804e8001801fb00e3fb2f008f814100d4
:1016b00081f92f008f804000a0f92f000f0040001b
:1016c000100007000000e00009003a00e1fb2f00d5
:1016d0008f804000a0f92f000f0040007603070024
:1016e0000000e000020035000804e80061ff370058
:1016f0000080eb004f0578004f04be000080fa0028
:1017000000000600889fbe008a1f78000004780051
:10171000824478000305780070c4b30080cf540081
:101720000a003c0000c0e90080cf54000f003d00db
:1017300050c2b30080cf5400350032007c404000de
:1017400080cf540035003a000800370010c6b300bf
:1017500080cf54000500320030003500b0c9b3001e
:1017600000c04400e24f50002c003e002861900071
:10177000c0c4b300804f510006003a001101780048
:1017800068005100800878005001be004000be0093
:1017900005003700110178006400510080087800ce
:1017a0001000be000a050700009cbe000294be00a7
:1017b000b8009000780090000100e00002003d00b9
:1017c000d1c2b30008003700881090000118a300b0
:1017d00002003200b1c2b300030037000108a300c9
:1017e0000400320001c2b300017578000000e80077
:1017f0007004980078009000000545006a04980085
:101800008900fb0008007800100007000b0037007b
:101810007800900009757800060037007800900085
:10182000000545000904e00001003a0059c2b30078
:10183000094d78000000e800700498000000eb00fb
:101840004f0578004f04be00000006002f04b000d2
:10185000889fbe008a9fbe008c9fbe008e1f7800ae
:101860000007780081f79f003e04be002e05be00f1
:101870005e0890000000e00002003d0060002000d3
:10188000500f98008e00780020fb2f000f004000c2
:10189000df020700e20f50000a003a00300020008b
:1018a000100f9800b1c9b3000ff0970081404000bd
:1018b000608b2000e1cf50000d003e00208b200007
:1018c0000b0037000000e0000f0034003000200063
:1018d000100f9800b1c9b3000ff19700814041008b
:1018e000e08b2000e1cf500001003e00a08b2000e3
:1018f000ee009000b0487800b068780010407800a2
:1019000090409800f30037000000e00005003a0026
:1019100022fb2f000f014100001978008001eb002d
:10192000e70037006022b8006033b8000800be004e
:101930000a01be00ee0307000000e00001003d00c8
:101940000bf0a200705927009f9897000088b900fb
:10195000026a2800130020004904070064065000b2
:101960009c9f9f0013003b0063061600c0ff2f00e2
:10197000000666008c01ea00939f9f002d8c2000da
:101980000800be000a01be00070037000c08a300d3
:10199000030032003d02be002d03be00f00407002c
:1019a0000c86d100e88646000c00e000f7ff3c0002
:1019b000180037000c00e00018003200c0ff2f00b4
:1019c000000666009c9f9f002d8c20006000b800e0
:1019d0000200200003ff2300070037000c08a300cb
:1019e000030032003d02be002d03be00dc040700f0
:1019f0000c86d100e88646000c00e000f7ff3c00b2
:101a00000002be000203be000800be000a01be00c4
:101a1000c10307000004be000205be00de089000fe
:101a200060c6b3000ff29700804f520004003200ee
:101a30006000200062c4b300824f520002003a00ee
:101a40009f9a97006a80420081004000f1b79f0092
:101a500001037800f30f5300020034003701200027
:101a6000f7b79f0000c3b300c0779f0056fb2f005d
:101a70000f0343000e007800a0b79f000607780010
:101a80003d0037000800be000a01be006f040700d9
:101a90000006be007fb1970068015100f2b79f00b9
:101aa0004240a9000c003400940407000002be006c
:101ab0000203be000800be000a01be001e050700aa
:101ac0006022b80046782d0077192400a40407008e
:101ad0000004be000205be00e80047008e002000a2
:101ae0000802be000a03be00b4b79f00c5b79f003e
:101af000d6b79f00e7b79f000c01be000104780035
:101b00000c003700a400200005002000c0fd2f00bd
:101b10000f004000b60107006fa89700ffa89700cc
:101b20000fb197009fb1970005c3b3000564410052
:101b30000001be00e00f5100e08f590003003400a7
:101b40000e07e900e10f4700eeff3a008800780039
:101b50003fb49700cfb497005fb59700efb59700fb
:101b60000200370000c3b300806078000e07e90070
:101b7000fcff3b00688740007fb397000600e00051
:101b8000070034006022b8006033b8000800be00cf
:101b90000a01be005b0307000000e000b9ff3c0043
:101ba0000e0378002fb7970051fb2f008f80400065
:101bb000010353009f9b970067804300909f9f0005
:101bc000020037000603e9000000e9000101780087
:101bd0008200780003c3b300b1cf1100f9ff3200d7
:101be000909f9f00de09900061c6b3000ff297003e
:101bf000814f52000300320061c4b300814f520094
:101c000002003a000000e8000a003700100020003f
:101c100051c6b3008ff2970081cf52000500320009
:101c20000540780050c4b2000080fb000000e900cd
:101c30004f00de0083014000868f51000100340018
:101c4000860178000300e0001d00350000c3b300ea
:101c5000868f510006003d0062c279006940400055
:101c600041c3b300814f520001003c006940500065
:101c70008300e90081004100010037008401780001
:101c80000302e90001037800a142780080cf5200ee
:101c9000faff320091c3b300814f500001003a00b7
:101ca000054be8000400e00005003d000201e900ea
:101cb0008301e8001f9b97000603e800969f9f00a2
:101cc0008ff397008700fb001f9a97000e007800a3
:101cd000060007004f0778004f06be004f05be0004
:101ce0004f04be002f04b10000000600f08747003b
:101cf000889fbe008a9fbe008c9fbe008e1f78000a
:101d000000047800814478000205be0004067800d3
:101d10000b00e00002003c001b0020002a9620007f
:101d200060c6b30080cf54000e00320060c4b30020
:101d300080cf54000b00320070c6b30080cf540037
:101d40000300320070c4b30080cf540081003a0019
:101d5000e40f46007f00350058089000800f5600c1
:101d60007c003d000c06e80060c6b30080cf540044
:101d70001000320060c4b30080cf54000d00320068
:101d8000081090000038a30004003a0058089000a2
:101d9000808f550001003d005b0c980058089000b2
:101da0000c005000500c980002003b000000eb00bb
:101db000500c980018089000e80090000c00e0001b
:101dc00026003c0002c3b300827078000000e800e7
:101dd000100c9800d80890000100e00003003c00bf
:101de000881090000138a30005003200e800900040
:101df000e2c2b300827078000000e800100c980086
:101e0000580890008c00ea00810f500001003d004e
:101e10000006ea008c00ea00210c9800000646004b
:101e20005c0c98008b0f5600010034000b06780004
:101e30003c0c9800e80090001808900000804000da
:101e40000c0178008a00780084fc07005808900094
:101e50000c0650004c0c9800900037008c8f5500f9
:101e600018003d00008040000b0178008a007800d7
:101e70007afc07001808900000804500100c9800bc
:101e80008b0556002b0c9800d80890000100e0004c
:101e900003003c00881090000138a30006003200c7
:101ea000e8009000e2c2b300827078003808900029
:101eb0000000e800300c980058089000400c980092
:101ec00076003700008040000c0178008a0078001e
:101ed00062fc07001808900000004600100c9800f3
:101ee0008c855500d80890000100e00003003c00fc
:101ef000881090000138a30005003200e80090002f
:101f0000e2c2b300827078000000e800100c980074
:101f100058089000808f550001003400800578003b
:101f2000e800900018089000008040008c004500f8
:101f30000b01780049fc0700180890000b004000d6
:101f4000100c9800580890008b0550002b0c98003e
:101f50005200370018089000e80090009a7078004e
:101f60000000e800100c9800d80890000100e00084
:101f700003003c00881090000138a30005003200e7
:101f8000e8009000e2c2b300827078000000e80030
:101f9000100c9800580890000000e0001000340079
:101fa0008b05e900808f5500010034008005780022
:101fb000e800900018089000008040008a00e800c7
:101fc0000b01780025fc0700180890000b0040006a
:101fd000100c9800580890008b0550002b0c9800ae
:101fe000e800900018089000008040000958780030
:101ff0000007e8000c00e00004003500b1c2b300a7
:10200000014878008e04780004003700d1c2b30084
:10201000014878008e0478000c06ea007d855700a0
:102020008006eb0009003700a20020008c00780039
:1020300072805700310007007fb097008fb897007b
:10204000016d7800000678008d06e8000c00e000c5
:10205000f5ff3c000d00e00009003a008e04780016
:1020600000c3b300805c7800050037008d06e900ee
:10207000fc80570061c07e0002c3b300825c400058
:102080000d00e000f9ff3c00e80090001808900007
:102090000080400080845400390c980008109000a3
:1020a00074006000f00f50000e003a009808900095
:1020b0007800900000804000a808900001004000d7
:1020c000b808900001004000c808900001004000de
:1020d000f8089000810f500002003d000080500081
:1020e000000c98004f0778004f06be004f05be0059
:1020f0004f04be000f01b10000000600800278000e
:1021000001037800110009000203d8008001780063
:10211000830a78000299b9000201530092029800e4
:1021200005007800000006000000e0002f003200eb
:10213000c0017800e38f51002c0036000308a30093
:102140002a003a00f14a80000100e000020032005b
:10215000810f50000400310011009800f04a8800ff
:102160001600370082007800110190000200e000a4
:1021700002003200800f5100faff3900110278008e
:1021800084824000850f500018003900808f520073
:1021900003003a008308420001007800070037007e
:1021a0000200e0000300320083014000830f510071
:1021b0000e003900120098009000980090009000e6
:1021c0000100e0000900320010014000828f500041
:1021d00006003a00c29520000009eb0010017800cb
:1021e00011084100910090001100980000000600c5
:1021f000881f78008a9fbe008c9fbe000004780074
:102200000205be000406be000401be000a00be00b6
:102210001b020700008cbe000c01be005803070023
:102220000005550081855d002a0498003b04980054
:10223000080078004f06be004f05be004f0478002e
:1022400000000600889fbe0000047800e14a80007c
:102250000100e00002003200010078000d003700ac
:10226000f14a8000e095200004003700910f5400ef
:10227000250036000180e800910090000100e00098
:10228000faff3a0010003700920f54001e0036008b
:102290000280e800100178000200e000faff3a0036
:1022a00011017800f14a8000e09520000400370019
:1022b000910f5400140036000180e8009100900056
:1022c000828f5000faff3a00294b8000888f54001b
:1022d00001003100880478000900780042000700fe
:1022e0000000e00004003a00888f5400050032002e
:1022f0008904d100f5ff3700091878008aff07002c
:10230000d2ff37000000eb004f04be0000000600c3
:10231000881f7800630440000800a1008000eb00e3
:10232000800f540021003600e30f540001003e00ee
:102330004800200008007800c2ff07008000eb0082
:102340000000e00019003200900078009101780050
:1023500064815100880f5100030031001101900089
:102360000208780007003700088140000208780062
:1023700091019000130198001001780011091400d8
:1023800088087800100178000000eb000200e000ef
:1023900004003200920190000300e00001003200ce
:1023a0000280e800e04a88008180e80001007800af
:1023b0004f04780000000600020037000304e0002c
:1023c000060032000001780002007800b041780079
:1023d00081cf5100f9ff3a00010037000001eb0006
:1023e0000200780000000600800078000000eb008a
:1023f0000100e000050034000100780005fa070044
:10240000e10f400001003a000000eb000000060070
:10241000889fbe0000047800e68440001900d000c8
:102420004500de00f27f2000820f500010003a00cd
:10243000000ceb00990478006f81640020002000fc
:102440001b003a00210190000200e00018003a0051
:10245000110190000200e00015003a001000200079
:102460001100e000120032002000200010003700b0
:102470000000e00004003a0001007800cc000700f2
:102480000000e00008003c00f20028001901610093
:1024900001fe2300810c710021c02f00010c4000bf
:1024a0000080eb0002003700000ceb000000eb00a6
:1024b0004f04be00000006000400fa00889fbe0022
:1024c0008a9fbe008c1f7800000478000106780007
:1024d000f80d900078009000808555000808900065
:1024e00080855500180890008085550028089000c8
:1024f0008085550038089000808555004808900078
:10250000808555000002220090bf9f000003230039
:10251000a0bf9f00081090000028a30015003a00fb
:102520000b00e000130034000b0578008a047800eb
:10253000e20f55000100360029002000c80190007c
:1025400009017800ee805700580090000300010058
:10255000500498000000e0008c00320068089000f1
:1025600009004000600c9800090555004240a90090
:10257000eeff3c00780190000200e0000c00340007
:10258000c80190008c007800580090000300010002
:10259000500498008080eb000000e0007c003200d6
:1025a000e80890007800900000804000600c9800df
:1025b000880c90000900e000110034000905780043
:1025c000e28f5400010036002a002000c80190006c
:1025d0000a017800ec8057005800900003000100c9
:1025e000500498000000e000680032006808900085
:1025f0000a004000600c98008a845400edff370008
:10260000180990000200e0000c003400c80190009e
:10261000e80090005800900003000100500498006a
:102620008080eb000000e00059003200e8089000d4
:102630001808900000804000600c9800a80c9000e2
:102640000900e0001100340009057800e28f540011
:10265000010036002a002000c80190000a0178001d
:10266000ec805700580090000300010050049800cf
:102670000000e00045003200680890000a004000b9
:10268000600c98008a845400edff370038099000f0
:102690000200e0000e003400e800900018089000ee
:1026a00080804000c80190005800900003000100a5
:1026b000500498008080eb000000e00034003200fd
:1026c000e80890003808900000804000600c9800f6
:1026d000c80c90000900e0001100340009057800e2
:1026e000e28f5400010036002a002000c80190004b
:1026f0000a017800ec8057005800900003000100a8
:10270000500498000000e0002000320068089000ab
:102710000a004000600c98008a845400edff3700e6
:10272000081090008000eb000028a3001800320081
:102730000b00e000160034008b04780009057800d7
:10274000e28f5400010036002a002000c8019000ea
:102750000a017800ee805700580090000300010045
:10276000500498000000e000080032006808900063
:102770000a004000600c98008a8454004240a9007e
:10278000eeff3c008000eb00010037008080eb0092
:10279000010078004f0678004f05be004f04be00d0
:1027a0000080fa0000000600010878000000060022
:1027b000e600400011017800050028008502610054
:1027c0006f016100820878000200320012002000d0
:1027d00011003700a0019000120020000300e0006b
:1027e0000d003a00900190000300e0000a003a005a
:1027f0001000e00008003a00360037006403400093
:102800009608780080017800530b780090097800d2
:102810000408780070015100110278000400e00003
:10282000f6ff320013003700640240001403780002
:102830004f33de00838141008308730080017800fc
:10284000d3037800cf3bde00140378000603430077
:10285000068a730013027800040242001003780015
:102860004f33de0086097200900178000388410032
:102870000201e90091017800ef8f5100eaff360074
:102880001000370080017800530378004f33dd00db
:102890001002d10004087300640240009403780021
:1028a000cf3bdd001303d10086897300110378004c
:1028b0004f33dd009401d100030a73009108d10069
:1028c0000201e80091017800ff8f5100edff3e000a
:1028d000ef88610091887200020078000000060015
:1028e00000c0da000000060000c0da0000000600a8
:1028f0008f1fd100260207008f87e9000000e0004b
:1029000000000600809feb00210207008f87e9008e
:102910000000e000000006002800fa00889fbe00ca
:102920008a9fbe008c9fbe0003866b008f0007004d
:102930006400e100440032006408e1004a00320013
:102940006100e100460032006108e1004900320008
:10295000ec0647006000b8003d02be003d03be002b
:10296000f48657006011b8003d04be003d05be006e
:102970007d0320000b0037000000a0008d06e90059
:10298000130032000402420085824a0006034b0015
:1029900087834b000000400081804800020149000d
:1029a000838149000802520089825a000a035b00b1
:1029b0008b835b00f0ff3b000802420089824a00e3
:1029c0000a034b008b834b008d06e900edff3a00b4
:1029d0008482720086827200f707b20087827200da
:1029e00001003200150020001e0490003e0b9000f4
:1029f00006035400e63fb0000368a300070032005e
:102a00000000a7000500a0008301d1000281d300cf
:102a10008180d3000080d3000603e8008301d10049
:102a20000281d3008180d3000080d3000002eb003c
:102a30000482d2002100070003f0a1000cf0a700df
:102a400003f0a0005d003700640247006408e10065
:102a5000570032003400be003401be00f6ff3700dc
:102a60006108e100520032006011b8006000b80057
:102a7000f1ff370003ff270002002000fbff3700b3
:102a8000839f68000100e00002003d00600010002c
:102a9000e08018000300e00002003d00600111002a
:102aa000e0811900260107004f00e00002003b0012
:102ab00060001000e08018000000060018002000f0
:102ac00057002000080453000d003d0006002000c0
:102ad00097fc2f000740e1001e0034008482720042
:102ae000610260008301d1000281d3008180d300a4
:102af0000080d3000804e800f8ff3a0047002000f7
:102b00006104600005047400040464000d003200d8
:102b100061004000e080480060014900e081490018
:102b200003b8a500070032000603e8006538e1009d
:102b300004003a008301d1000281d3008180d300d8
:102b40000080d300f87f20000830e100030035004a
:102b5000080378006000b8006011b8004433dd005d
:102b6000f300b20083017300000006006804470010
:102b70000294be000094be00fc0447008694be0090
:102b80008494be0009007800ca010700080078009c
:102b9000c801070099007800814f70000b003b00ce
:102ba0000800be00a30107004f00b100030037007a
:102bb000f3ff2700f2ff2f006110b9004f06be009f
:102bc0004f05be004f04be000080fa000000060062
:102bd000810378004c0007000001be006000b800cf
:102be0000478a30013003a006220e10015003e00c3
:102bf0000d0039008301d1000281d3008180d30010
:102c00008301d1000281d3008180d3008301d100f0
:102c10000281d3008180d3000538b000c42add00d2
:102c2000f300b2008381720007f0a70003f0a00058
:102c300000000600f3ff2700f2ff2f006110b9002b
:102c4000fbff370003ff2700f7ff37001400fa00ef
:102c5000889fbe008a9fbe008c9fbe000004be00fd
:102c60000205be00680047000a90be000890be0042
:102c7000900107000070a7000bf0a1003043200076
:102c80009e02900080825200b0fe2f000028e100da
:102c900011003d00b0fc2f000028e10015003400b9
:102ca0001e0990008e0890007e0090000501b00083
:102cb0000201d1008180d3000080d3008502e800aa
:102cc000fbff3a000b00e000bcff3b00600010007f
:102cd000e0801800b9ff3700f0ff2f00f1ff270058
:102ce0000b00e000b5ff3b000100280000002000c1
:102cf000b2ff37006000b800b0ff37004f89de0038
:102d00008201780092013700c70ade00f107b200a5
:102d1000f50fb20008003200e1cf4200020032009d
:102d20000170a00024000500810f70000100320036
:102d30000408050044000500810f700002003a00fd
:102d4000140005008502e9000000400081c0480031
:102d5000fcff3b000170a000240005000000000003
:102d60002800fa00889fbe008a9fbe008c9fbe008c
:102d700003866b007dff07000028a30064003a0073
:102d80000128a30067003a000008a30062003a008f
:102d90000108a30065003a001e009000be089000e4
:102da00081064000ed3fb100f4805700ee01900035
:102db000111ab8008e099000311bb8009e099000ce
:102dc000311cb800511db800f485570046000700bb
:102dd000fe0190003a0007008b85e8003e000700e6
:102de0008e09900040000700ee01900034000700bb
:102df0008b85e800380007008e099000400007002e
:102e00009e0990001b18b800890440000a854800fc
:102e1000fe019000340007008b85e80038000700b1
:102e2000ee019000300007008e0990001b18b800da
:102e3000890440000a8548000a98a30008003a0067
:102e40000402420085824a0006034b0087834b0040
:102e500008044c0089844c000a054d008d06e900e9
:102e600084827200850273004c3add008502720094
:102e70000100320015002000443ade001400b200c8
:102e80004538de00cb45dd000b007000c540de009c
:102e9000cb4ddd008b8070004549de00cb55dd0059
:102ea0000b017100c551de000d03780003ff070020
:102eb00003f0a1000cf0a70003f0a0003fff3700d3
:102ec0001b18b8008502400006834800e0834b00d1
:102ed00060044c00070037001b18b80006034000d0
:102ee00087834800faff37001b18b80087034000ab
:102ef00008844800e0844c0060054d000000060096
:102f00001b18b8000804400089844800faff370005
:102f10000108a30026ff3a005800be005801be0079
:102f2000e3ff37000008a30021ff3a0009047800fe
:102f3000f9ff37000000000007f0a200160037007c
:102f40006022b800060220000000d0008180d2007c
:102f50000482d2008582d2000000a000020252004a
:102f600083825a00030031000202420083824a0039
:102f70000000a1000603e900f3ff3a00000006008c
:102f8000020ab900001bb9000200b800810042002b
:102f900081004300000006002800fa00889fbe0060
:102fa0008a9fbe008c9fbe00070678008786690056
:102fb0000c003b00030478008704780008f0a100af
:102fc00009f0a100840f5000858f5800860f59002a
:102fd000890f5c00030033000cf0a20001003a00ee
:102fe0000cf0a100e1fe07006400e1005f00320088
:102ff000780147006408e100610032006c0147007d
:10300000748557003200be001201be003a04be00b3
:103010001a05be001e039000be0a900085035300ef
:1030200006003d000004fd008104fd000205fd00d6
:103030008305fd008703ea00050378000df8a3006f
:103040000400320060041400e0841c0060051d00d0
:10305000e0851d006022b8007d0320000d38e100ee
:103060008006eb000b0039004433dd00f300b200b2
:103070008301730039003700848272000d027800ea
:10308000e10664008b85d1000a85d3008984d300d2
:103090000884d3008703e900f7ff3b0008004000e5
:1030a000898048000a0149008b81490004003b00e7
:1030b00060001000e080180060011900e081190034
:1030c0000358a300090032008d82720084827200ce
:1030d000610260008301d1000281d3008180d300ae
:1030e0000080d3000603e8001b0037000348a3005c
:1030f00017003a000600e000170034000603e9005c
:103100000d00a30000004800818048000201490032
:10311000838149000348a3000f003a000600e00045
:10312000090034000603e9000000400081804800e7
:10313000020149008381490001003a000003eb00cd
:103140000348a300f5ff32006022b80002003700f8
:10315000848272006182660058fe070003f0a100bd
:103160000cf0a70003f0a00094fe370064014700b4
:103170006408e10002003a000df8a3008cfe3a005a
:103180003200be001201be008cfe370000000000bd
:10319000889fbe008a9fbe008c9fbe000404be00b4
:1031a0000605be00809fbe00829fbe002f00070064
:1031b000040678000800be000a01be002b000700cc
:1031c000840678004f03be004f02be008d4f76008c
:1031d0007fb0970013003300f0ff2f008b8f6b0040
:1031e00006003b000d0666000c00a7000a00370031
:1031f00007f0a600100020000a003700880f5200d8
:10320000898f5a008a0f5b008b8f5b0003003900a7
:103210001000200001003e000000200007f0a70081
:103220000000ea004f06be004f05be004f04be007e
:1032300000000600e48240001078a300070032007e
:10324000640240001178a3003400be001401be00e7
:10325000040032000330a700000006003500be0065
:103260001501be000330a0000000060005ff270086
:1032700005826100070032000428e10001003200ed
:10328000240005000600070001003a004400050084
:103290000408050002000700f9ff3a0014000500c9
:1032a0006f826100810270008502710085027200e8
:1032b00000000600800078005002be005003be00ef
:1032c0004439de00f700b200f37f20000301610003
:1032d000090032000218e10016003a008501720070
:1032e00083017300838173000008200015003a00f9
:1032f0004000200013003700850172008301730035
:103300008381730005003a0004a8be0006a8be0031
:10331000100020000b0037000201e9000402420007
:1033200085824a0006034b0087834b000748a300b1
:10333000f9ff32000740a00004a8be0006a8be00a6
:1033400020002000800098009200980000000600f5
:10335000881f7800030478000300e00007003d00a8
:1033600060001000e080180060011900e081190081
:1033700002003b0001f02d000300370004000700ad
:1033800008f0a70003f0a0004f047800000006003a
:10339000889fbe00008270000402710004827100e8
:1033a0002400320036432000c50020008383cf0074
:1033b0000a0039000541b1008283cf0007003900bf
:1033c0000541b1008183cf00040039000541b100ff
:1033d0008083cf00010039000541b10085c353004f
:1033e0006022b800120032000a003b0084827200a2
:1033f000610260008301d1000281d3008180d3008b
:103400000080d3000603e8008743e800f7ff3a0096
:103410000700370000004000818048000201490099
:10342000838149000603e9008743e900f9ff3a0078
:0c343000a2fd07004f04be0000000600d3
:020000040000fa
:10343c00546500006d70000065720000617400003e
:10344c0075720000203d000020250000302e000089
:10345c00326600004320000020200000004c0000d9
:10346c0075660000746600006575000063680000f6
:10347c0074690000676b000065690000742000002f
:10348c003d200000253400002e320000662500008f
:08349c00250d00000a000000ec
:020000040000fa
:1034a4000000fa00008020004194200011009800e0
:1034b4000080200041942000010878000080200052
:1034c400a00090000110a0002100980000802000be
:1034d400a00090000100a1002100980000802000bd
:1034e4008040eb0061409800e0042000f016880062
:1034f4000000280000178800e422ef008620a900bd
:103504009620a8000080fa00000006000200fa00dd
:1035140000802000e0409000014f78001e407800b9
:103524000080fa00000006000000fa0060408000fd
:1035340066004000604088000ac8bf000040e900ff
:103544000ae8b7000ac8bf000004e00003003a001c
:103554004000200040408800020037001000200096
:10356400404088000080fa00000006000200fa00d3
:10357400000f7800e042a800704080002000900016
:103584000000e00003003200704080002000900042
:103594001e0878000828ef000080fa0000000600ea
:1035a4000800fa00000f78002147980022079800cd
:1035b4003307980000802000200090006100600024
:1035c4000000e0000a003a00ae0190002e41900095
:1035d4009e00780000952000770007003e019000cf
:1035e4000195200010c0b3001f000700030037003e
:1035f4003e0090008000eb00010878000080fa0093
:10360400000006000800fa00000f78002147980027
:1036140022079800330798000080200020009000c3
:10362400610060000000e0000a003a00ae01900072
:103634002e4190009e007800a094200046000700d0
:103644003e019000a194200010c0b30006000700c2
:10365400030037003e0090008000eb000108780072
:103664000080fa00000006000600fa00004f78000f
:103674001107980022079800008020002000900085
:10368400610060000000e0002e003a002e0090006f
:10369400110020000108780000802000100078004c
:1036a4009e00900011009800008020001000780017
:1036b4001e4878000080200010007800ae009000c2
:1036c400210098000080200010007800e6004000ef
:1036d400008020000108780000802000900078001d
:1036e400a0942000808f500003003a000080200046
:1036f400419420000108780000802000a000900080
:103704000110a1002100980000802000900090008a
:103714000080200010007800808f500004003a00e0
:1037240000802000a00090000100a000210098006b
:10373400404080000000e00005003a008620a80018
:10374400030037002e0090008000eb000108780091
:103754000080fa00000006000800fa00000f78005c
:103764001107980042479800330798003e009000e4
:1037740000004000800078001e00780001087800f6
:103784001e00780010007800800078000100a0007e
:103794001e007800010878001e007800ce409000da
:1037a400214098001e0078009e009000210098009f
:1037b4000080fa00000006000800fa00000f7800fc
:1037c4001107980042479800330798003e00900084
:1037d40000004000800078001e0078000108780096
:1037e4001e007800ce409000214098001e00780012
:1037f4009e009000210098000080fa00000006005e
:103804000000fa00008020002000900062006000a8
:1038140000f0a7000000ea000000ea004f00de000c
:10382400004078000080fa00000006000000fa0062
:1038340000802000200090006100600000f0a700dc
:103844000000ea000000ea004f00de0000407800bb
:103854000080fa00000006000000fa0000c4b30073
:1038640022e8b7006095200021c0b3000148780029
:103874007095200001c1b3000148780022c8bf0040
:103884000080fb00038220000001780021c0b30007
:103894006095200042ff07007500070000a0260085
:1038a40081012000f70107000080fa0000000600f3
:1038b4000600fa00889fbe0000c4b30022e8b700e7
:1038c400609520008040eb000148780022c8bf00ca
:1038d4000080fb00038220000001780011c0b300c7
:1038e400609520002eff07006100070022c8bf007a
:1038f4000080fb00038220000001780021c0b30097
:10390400909520003fff070059000700a095200074
:10391400104078000080fb00c800dd009095200076
:10392400104078000080fb0000804000000f780009
:103934009e007800500a20000088b900000078003a
:103944008000eb00e00f5000e08f580004003d00c1
:10395400f2ff2f0003002000000041008180490095
:10396400408cde00cf8cde000800be008002b10077
:103974000180b100dcf407001007980021079800cb
:103984001e009000ae0090004f04be000080fa00bc
:10399400000006000600fa00889fbe0000c4b300c1
:1039a40022e8b7006095200011c0b30001487800f8
:1039b40022c8bf000080fb000382200000017800c1
:1039c40011c0b30060952000f5fe07002800070031
:1039d40022c8bf000080fb000382200000017800a1
:1039e40021c0b3009095200006ff070020000700c7
:1039f400a0952000104078000080fb00c800dd0086
:103a040090952000104078000080fb00008040006a
:103a1400000f78009e007800400620000088b9005e
:103a2400000078008000eb00e00f5000e08f5800a9
:103a340004003d00f2ff2f000300200000004100bd
:103a440081804900408cde00cf8cde000800be007f
:103a5400a5f4070010079800210798001e009000a5
:103a6400ae0090004f04be000080fa000000060083
:103a74000000fa002428ef002628ef000900370090
:103a840031418000803e2000808f500002003a00c7
:103a9400000000000e003700304180000000e80004
:103aa4003041880000418000e10f5000f4ff3200f3
:103ab4000700370021418000803e2000808f5000a5
:103ac40007003200204180000000e8002041880007
:103ad400004180000000e000f6ff3a0001003700da
:0c3ae400000000000080fa000000060056
:020000040000fa
:103af00044090000120000008000000000080000df
:103b000018000000800000000a09000020000000ea
:103b10008000000028080000020000008200000071
:103b2000ffff0000180800000800000080000000ef
:103b30005609000006000000800000002008000078
:103b400008000000800000002a0800008800000033
:103b500082000000010000000050080051085000e1
:103b600008500800500850000840080000000000fd
:103b70000000000000000000000000000000000045
:103b800000000000000000000002080001017800b1
:103b90000879080078087800087808007808680034
:103ba000080000000000000000000000000000000d
:103bb0000000000000000000000000000000020003
:103bc00008020200a008a10008a00800a008a000a8
:103bd00008a008009008000000000000000000009d
:103be00000000000000000000000000000000000d5
:103bf000000000002a085200087a080000000000b7
:103c0000000000000000000000000000600900004b
:103c100002000000800000002a0900001a000000d5
:103c200082000000686a6c00747a4c000000010099
:103c30000002000004000800001000000000200046
:103c40002b2d230030000000b208000058000000b7
:103c5000820000006e616e00004e41004e0069005f
:103c60006e660000494e46000000000000000000a3
:103c70000024400000000000000000005940000047
:103c8000000000000088c300400000000000840025
:103c9000d79741000080e0003779c3004143170007
:103ca0006e05b500b5b8930046f5f9003fe903008d
:103cb0004f384d00321d3000f9487700825a3c00e1
:103cc000bf737f00dd4f1500750000006209000022
:103cd00002000000820000003000000064090000c3
:103ce0000200000082000000040000005c090000e7
:103cf00004000000800000006609000002000000cf
:083d000080000000000000003b
:020000040000fa
:103d08000000fa0080002000002888000225ef004b
:103d1800001a2000402888000a25ef000c25ef0033
:103d28000e25ef001025ef001225ef001425ef00f7
:103d380001e5a8000345a8000080fa00000006007d
:103d48000000fa00000000001028800061006000f8
:103d58000000e000fcff32001028800062006000d4
:103d68000000e000010032000225a9003028800090
:103d7800004078000080fa00000006000200fa0007
:103d8800004f78000000000011288000002020006b
:103d9800008060000000e000fbff3a001e80fb008e
:103da800202888000080fa00000006000000fa00c1
:103db8001028800000407800614060000080fb000f
:103dc80000f0a7000000ea000000ea004f00de0053
:103dd800004078000080fa00000006000000fa00a9
:103de8001128800000202000008060000000e00012
:103df80007003a0011288000004020000080600081
:103e08000000e0000200320010002000010037002e
:103e18000000eb00004078000080fa000000060077
:103e28000000fa00102880004800de0061406000b1
:103e38000080fb0000f0a7000000ea000000ea0094
:103e48004f00de00004078000080fa000000060005
:103e58000000fa00102880000080fa000000060028
:103e68000000fa0001e5a8000345a8000080fa0058
:103e7800000006000000fa0001e5a9000345a900ba
:103e88000080fa00000006000000fa008421ef001c
:103e98008e21ef009821ef0070792000000c880037
:103ea800f0ff2e00500c8800f03b2000a00c88008a
:103eb8005620ef005820ef005a20ef006e20ef0048
:103ec8007020ef007220ef008621ef009021ef00b4
:103ed8009a21ef00c0002000400c8800f0042e005a
:103ee800900c880070002000e00c88000108800019
:103ef800f00b2000008160006004200071052000a4
:103f080003102000804978008149780082497800b0
:103f1800611f800000fc2f00008060003000b300ab
:103f2800601f8800811d800000fc2f000080600059
:103f38007001b300801d880000088000000178002f
:103f48000260a0006004200071052000031020001a
:103f58008049780081497800824978000080fa0019
:103f6800000006000000fa00001023001008880076
:103f78000621ef006821ef006a21ef006e21ef00b3
:103f88007021ef007221ef007421ef007621ef001d
:103f98007a21ef007c21ef007e21ef001200200043
:103fa80080072000a1092000131020008049780014
:103fb80081497800824978001200200060042000be
:103fc800710520000310200080497800814978009d
:103fd800824978000000000000088000610060004d
:103fe8000000e000fcff3a0000000000010880002b
:103ff80000022000008060000000e000fbff3200ab
:104008000080fa00000006000000fa0043000700e4
:1040180010fe070000202100a1072000180007005b
:1040280022fe0700c0408800d140880058fe0700e3
:10403800e0408800f1408800c0408000d140800006
:10404800809fbe00e0a12900801f78009bf3070035
:10405800e6875700e0408000f1408000809fbe0066
:1040680050a32900801f780094f30700e6875700c3
:1040780000202100a107200001000700e8ff370009
:020000040000fa
:10408800f03fb1000180b10006003500ee030900e1
:1040980000000000403fb1000180b100fbff3d007f
:1040a8001000b000203fb000020035000080090079
:0840b8000000000000000600fa
:020000040000fa
:1040c0000000fa0061058000f0f82f000080600019
:1040d0000040a000600588006105800080ff2f007f
:1040e000008060000000a000600588000080fa00e9
:1040f000000006000200fa00000f78009e00780021
:1041000041418800ffff37000000fa00a090200026
:104110008007780020922000000188000080fa00cb
:10412000000006000000fa0059ff07008fff07009b
:10413000e3ff0700dbfc0700f3fe07000080fa0046
:044140000000060075
:020000040000fa
:020000040002f8
:04aff000fffb000063
:020000040000fa
:020000040002f8
:04aff400fff6000064
:020000040000fa
:020000040002f8
:04aff8005f380000be
:020000040000fa
:020000040002f8
:04affc003f3d0000d5
:00000001FF
